{
  "contractName": "Twitter",
  "abi": [
    {
      "inputs": [],
      "stateMutability": "nonpayable",
      "type": "constructor"
    },
    {
      "inputs": [
        {
          "internalType": "string",
          "name": "_username",
          "type": "string"
        },
        {
          "internalType": "string",
          "name": "_password",
          "type": "string"
        }
      ],
      "name": "Registration",
      "outputs": [],
      "stateMutability": "nonpayable",
      "type": "function"
    },
    {
      "inputs": [
        {
          "internalType": "string",
          "name": "_password",
          "type": "string"
        }
      ],
      "name": "Login",
      "outputs": [],
      "stateMutability": "nonpayable",
      "type": "function"
    },
    {
      "inputs": [],
      "name": "Logout",
      "outputs": [],
      "stateMutability": "nonpayable",
      "type": "function"
    },
    {
      "inputs": [
        {
          "internalType": "address",
          "name": "_user",
          "type": "address"
        }
      ],
      "name": "GetUser",
      "outputs": [
        {
          "components": [
            {
              "internalType": "address",
              "name": "login",
              "type": "address"
            },
            {
              "internalType": "string",
              "name": "password",
              "type": "string"
            },
            {
              "internalType": "string",
              "name": "username",
              "type": "string"
            },
            {
              "internalType": "string",
              "name": "avatar",
              "type": "string"
            }
          ],
          "internalType": "struct Twitter.User",
          "name": "",
          "type": "tuple"
        }
      ],
      "stateMutability": "view",
      "type": "function",
      "constant": true
    },
    {
      "inputs": [
        {
          "internalType": "string",
          "name": "_text",
          "type": "string"
        }
      ],
      "name": "AddTwitt",
      "outputs": [],
      "stateMutability": "nonpayable",
      "type": "function"
    },
    {
      "inputs": [
        {
          "internalType": "address",
          "name": "_user",
          "type": "address"
        }
      ],
      "name": "UserTwitts",
      "outputs": [
        {
          "components": [
            {
              "components": [
                {
                  "internalType": "address",
                  "name": "login",
                  "type": "address"
                },
                {
                  "internalType": "string",
                  "name": "password",
                  "type": "string"
                },
                {
                  "internalType": "string",
                  "name": "username",
                  "type": "string"
                },
                {
                  "internalType": "string",
                  "name": "avatar",
                  "type": "string"
                }
              ],
              "internalType": "struct Twitter.User",
              "name": "author",
              "type": "tuple"
            },
            {
              "internalType": "string",
              "name": "text",
              "type": "string"
            },
            {
              "internalType": "uint256",
              "name": "likes",
              "type": "uint256"
            },
            {
              "internalType": "uint256",
              "name": "createdTime",
              "type": "uint256"
            }
          ],
          "internalType": "struct Twitter.Twitt[]",
          "name": "",
          "type": "tuple[]"
        }
      ],
      "stateMutability": "view",
      "type": "function",
      "constant": true
    },
    {
      "inputs": [
        {
          "internalType": "address",
          "name": "_user",
          "type": "address"
        }
      ],
      "name": "CheckRegistration",
      "outputs": [
        {
          "internalType": "bool",
          "name": "",
          "type": "bool"
        }
      ],
      "stateMutability": "view",
      "type": "function",
      "constant": true
    },
    {
      "inputs": [
        {
          "internalType": "string",
          "name": "_avatar",
          "type": "string"
        }
      ],
      "name": "UpdateUser",
      "outputs": [],
      "stateMutability": "nonpayable",
      "type": "function"
    }
  ],
  "bytecode": "0x6080604052600060045534801561001557600080fd5b50336000806101000a81548173ffffffffffffffffffffffffffffffffffffffff021916908373ffffffffffffffffffffffffffffffffffffffff1602179055506119c0806100656000396000f3fe608060405234801561001057600080fd5b50600436106100885760003560e01c806346fd7ce11161005b57806346fd7ce1146101255780634cbf3e7414610155578063c8d8b7e614610171578063d2ecf4f81461018d57610088565b80630b2d89241461008d5780632e8ce9f2146100a95780633aae7db7146100c55780633b1a3ac7146100f5575b600080fd5b6100a760048036038101906100a29190611136565b610197565b005b6100c360048036038101906100be9190611177565b610363565b005b6100df60048036038101906100da919061110d565b610576565b6040516100ec9190611562565b60405180910390f35b61010f600480360381019061010a919061110d565b610611565b60405161011c91906115fd565b60405180910390f35b61013f600480360381019061013a919061110d565b610876565b60405161014c9190611540565b60405180910390f35b61016f600480360381019061016a9190611136565b610c66565b005b61018b60048036038101906101869190611136565b610cc6565b005b610195610ec9565b005b600073ffffffffffffffffffffffffffffffffffffffff16600160003373ffffffffffffffffffffffffffffffffffffffff1673ffffffffffffffffffffffffffffffffffffffff16815260200190815260200160002060000160009054906101000a900473ffffffffffffffffffffffffffffffffffffffff1673ffffffffffffffffffffffffffffffffffffffff161415610269576040517f08c379a0000000000000000000000000000000000000000000000000000000008152600401610260906115bd565b60405180910390fd5b8080519060200120600160003373ffffffffffffffffffffffffffffffffffffffff1673ffffffffffffffffffffffffffffffffffffffff1681526020019081526020016000206001016040516102c09190611529565b604051809103902014610308576040517f08c379a00000000000000000000000000000000000000000000000000000000081526004016102ff9061159d565b60405180910390fd5b6001600260003373ffffffffffffffffffffffffffffffffffffffff1673ffffffffffffffffffffffffffffffffffffffff16815260200190815260200160002060006101000a81548160ff02191690831515021790555050565b600073ffffffffffffffffffffffffffffffffffffffff16600160003373ffffffffffffffffffffffffffffffffffffffff1673ffffffffffffffffffffffffffffffffffffffff16815260200190815260200160002060000160009054906101000a900473ffffffffffffffffffffffffffffffffffffffff1673ffffffffffffffffffffffffffffffffffffffff1614610434576040517f08c379a000000000000000000000000000000000000000000000000000000000815260040161042b9061157d565b60405180910390fd5b60405180608001604052803373ffffffffffffffffffffffffffffffffffffffff16815260200182815260200183815260200160405180602001604052806000815250815250600160003373ffffffffffffffffffffffffffffffffffffffff1673ffffffffffffffffffffffffffffffffffffffff16815260200190815260200160002060008201518160000160006101000a81548173ffffffffffffffffffffffffffffffffffffffff021916908373ffffffffffffffffffffffffffffffffffffffff160217905550602082015181600101908051906020019061051c929190610faf565b506040820151816002019080519060200190610539929190610faf565b506060820151816003019080519060200190610556929190610faf565b509050506004600081548092919061056d906117e8565b91905055505050565b60008073ffffffffffffffffffffffffffffffffffffffff16600160008473ffffffffffffffffffffffffffffffffffffffff1673ffffffffffffffffffffffffffffffffffffffff16815260200190815260200160002060000160009054906101000a900473ffffffffffffffffffffffffffffffffffffffff1673ffffffffffffffffffffffffffffffffffffffff1614159050919050565b610619611035565b600160008373ffffffffffffffffffffffffffffffffffffffff1673ffffffffffffffffffffffffffffffffffffffff1681526020019081526020016000206040518060800160405290816000820160009054906101000a900473ffffffffffffffffffffffffffffffffffffffff1673ffffffffffffffffffffffffffffffffffffffff1673ffffffffffffffffffffffffffffffffffffffff1681526020016001820180546106c990611785565b80601f01602080910402602001604051908101604052809291908181526020018280546106f590611785565b80156107425780601f1061071757610100808354040283529160200191610742565b820191906000526020600020905b81548152906001019060200180831161072557829003601f168201915b5050505050815260200160028201805461075b90611785565b80601f016020809104026020016040519081016040528092919081815260200182805461078790611785565b80156107d45780601f106107a9576101008083540402835291602001916107d4565b820191906000526020600020905b8154815290600101906020018083116107b757829003601f168201915b505050505081526020016003820180546107ed90611785565b80601f016020809104026020016040519081016040528092919081815260200182805461081990611785565b80156108665780601f1061083b57610100808354040283529160200191610866565b820191906000526020600020905b81548152906001019060200180831161084957829003601f168201915b5050505050815250509050919050565b6060600260003373ffffffffffffffffffffffffffffffffffffffff1673ffffffffffffffffffffffffffffffffffffffff16815260200190815260200160002060009054906101000a900460ff16610904576040517f08c379a00000000000000000000000000000000000000000000000000000000081526004016108fb906115dd565b60405180910390fd5b600360008373ffffffffffffffffffffffffffffffffffffffff1673ffffffffffffffffffffffffffffffffffffffff168152602001908152602001600020805480602002602001604051908101604052809291908181526020016000905b82821015610c5b5783829060005260206000209060070201604051806080016040529081600082016040518060800160405290816000820160009054906101000a900473ffffffffffffffffffffffffffffffffffffffff1673ffffffffffffffffffffffffffffffffffffffff1673ffffffffffffffffffffffffffffffffffffffff1681526020016001820180546109fc90611785565b80601f0160208091040260200160405190810160405280929190818152602001828054610a2890611785565b8015610a755780601f10610a4a57610100808354040283529160200191610a75565b820191906000526020600020905b815481529060010190602001808311610a5857829003601f168201915b50505050508152602001600282018054610a8e90611785565b80601f0160208091040260200160405190810160405280929190818152602001828054610aba90611785565b8015610b075780601f10610adc57610100808354040283529160200191610b07565b820191906000526020600020905b815481529060010190602001808311610aea57829003601f168201915b50505050508152602001600382018054610b2090611785565b80601f0160208091040260200160405190810160405280929190818152602001828054610b4c90611785565b8015610b995780601f10610b6e57610100808354040283529160200191610b99565b820191906000526020600020905b815481529060010190602001808311610b7c57829003601f168201915b5050505050815250508152602001600482018054610bb690611785565b80601f0160208091040260200160405190810160405280929190818152602001828054610be290611785565b8015610c2f5780601f10610c0457610100808354040283529160200191610c2f565b820191906000526020600020905b815481529060010190602001808311610c1257829003601f168201915b505050505081526020016005820154815260200160068201548152505081526020019060010190610963565b505050509050919050565b6000600160003373ffffffffffffffffffffffffffffffffffffffff1673ffffffffffffffffffffffffffffffffffffffff168152602001908152602001600020905081816003019080519060200190610cc1929190610faf565b505050565b600260003373ffffffffffffffffffffffffffffffffffffffff1673ffffffffffffffffffffffffffffffffffffffff16815260200190815260200160002060009054906101000a900460ff16610d52576040517f08c379a0000000000000000000000000000000000000000000000000000000008152600401610d49906115dd565b60405180910390fd5b6000610d5d33610611565b9050600360003373ffffffffffffffffffffffffffffffffffffffff1673ffffffffffffffffffffffffffffffffffffffff16815260200190815260200160002060405180608001604052808381526020018481526020016000815260200142815250908060018154018082558091505060019003906000526020600020906007020160009091909190915060008201518160000160008201518160000160006101000a81548173ffffffffffffffffffffffffffffffffffffffff021916908373ffffffffffffffffffffffffffffffffffffffff1602179055506020820151816001019080519060200190610e55929190610faf565b506040820151816002019080519060200190610e72929190610faf565b506060820151816003019080519060200190610e8f929190610faf565b5050506020820151816004019080519060200190610eae929190610faf565b50604082015181600501556060820151816006015550505050565b600260003373ffffffffffffffffffffffffffffffffffffffff1673ffffffffffffffffffffffffffffffffffffffff16815260200190815260200160002060009054906101000a900460ff16610f55576040517f08c379a0000000000000000000000000000000000000000000000000000000008152600401610f4c906115dd565b60405180910390fd5b6000600260003373ffffffffffffffffffffffffffffffffffffffff1673ffffffffffffffffffffffffffffffffffffffff16815260200190815260200160002060006101000a81548160ff021916908315150217905550565b828054610fbb90611785565b90600052602060002090601f016020900481019282610fdd5760008555611024565b82601f10610ff657805160ff1916838001178555611024565b82800160010185558215611024579182015b82811115611023578251825591602001919060010190611008565b5b5090506110319190611073565b5090565b6040518060800160405280600073ffffffffffffffffffffffffffffffffffffffff1681526020016060815260200160608152602001606081525090565b5b8082111561108c576000816000905550600101611074565b5090565b60006110a361109e84611644565b61161f565b9050828152602081018484840111156110bb57600080fd5b6110c6848285611743565b509392505050565b6000813590506110dd81611973565b92915050565b600082601f8301126110f457600080fd5b8135611104848260208601611090565b91505092915050565b60006020828403121561111f57600080fd5b600061112d848285016110ce565b91505092915050565b60006020828403121561114857600080fd5b600082013567ffffffffffffffff81111561116257600080fd5b61116e848285016110e3565b91505092915050565b6000806040838503121561118a57600080fd5b600083013567ffffffffffffffff8111156111a457600080fd5b6111b0858286016110e3565b925050602083013567ffffffffffffffff8111156111cd57600080fd5b6111d9858286016110e3565b9150509250929050565b60006111ef83836113ce565b905092915050565b611200816116fb565b82525050565b60006112118261169a565b61121b81856116bd565b93508360208202850161122d85611675565b8060005b85811015611269578484038952815161124a85826111e3565b9450611255836116b0565b925060208a01995050600181019050611231565b50829750879550505050505092915050565b6112848161170d565b82525050565b6000815461129781611785565b6112a181866116ce565b945060018216600081146112bc57600181146112cd57611300565b60ff19831686528186019350611300565b6112d685611685565b60005b838110156112f8578154818901526001820191506020810190506112d9565b838801955050505b50505092915050565b6000611314826116a5565b61131e81856116d9565b935061132e818560208601611752565b611337816118be565b840191505092915050565b600061134f601d836116ea565b915061135a826118cf565b602082019050919050565b6000611372600e836116ea565b915061137d826118f8565b602082019050919050565b60006113956013836116ea565b91506113a082611921565b602082019050919050565b60006113b8601e836116ea565b91506113c38261194a565b602082019050919050565b600060808301600083015184820360008601526113eb8282611438565b915050602083015184820360208601526114058282611309565b915050604083015161141a604086018261151a565b50606083015161142d606086018261151a565b508091505092915050565b600060808301600083015161145060008601826111f7565b50602083015184820360208601526114688282611309565b915050604083015184820360408601526114828282611309565b9150506060830151848203606086015261149c8282611309565b9150508091505092915050565b60006080830160008301516114c160008601826111f7565b50602083015184820360208601526114d98282611309565b915050604083015184820360408601526114f38282611309565b9150506060830151848203606086015261150d8282611309565b9150508091505092915050565b61152381611739565b82525050565b6000611535828461128a565b915081905092915050565b6000602082019050818103600083015261155a8184611206565b905092915050565b6000602082019050611577600083018461127b565b92915050565b6000602082019050818103600083015261159681611342565b9050919050565b600060208201905081810360008301526115b681611365565b9050919050565b600060208201905081810360008301526115d681611388565b9050919050565b600060208201905081810360008301526115f6816113ab565b9050919050565b6000602082019050818103600083015261161781846114a9565b905092915050565b600061162961163a565b905061163582826117b7565b919050565b6000604051905090565b600067ffffffffffffffff82111561165f5761165e61188f565b5b611668826118be565b9050602081019050919050565b6000819050602082019050919050565b60008190508160005260206000209050919050565b600081519050919050565b600081519050919050565b6000602082019050919050565b600082825260208201905092915050565b600081905092915050565b600082825260208201905092915050565b600082825260208201905092915050565b600061170682611719565b9050919050565b60008115159050919050565b600073ffffffffffffffffffffffffffffffffffffffff82169050919050565b6000819050919050565b82818337600083830152505050565b60005b83811015611770578082015181840152602081019050611755565b8381111561177f576000848401525b50505050565b6000600282049050600182168061179d57607f821691505b602082108114156117b1576117b0611860565b5b50919050565b6117c0826118be565b810181811067ffffffffffffffff821117156117df576117de61188f565b5b80604052505050565b60006117f382611739565b91507fffffffffffffffffffffffffffffffffffffffffffffffffffffffffffffffff82141561182657611825611831565b5b600182019050919050565b7f4e487b7100000000000000000000000000000000000000000000000000000000600052601160045260246000fd5b7f4e487b7100000000000000000000000000000000000000000000000000000000600052602260045260246000fd5b7f4e487b7100000000000000000000000000000000000000000000000000000000600052604160045260246000fd5b6000601f19601f8301169050919050565b7f4163636f756e7420697320616c72656164792072656769737465726564000000600082015250565b7f57726f6e672070617373776f7264000000000000000000000000000000000000600082015250565b7f596f7520686176656e6074206163636f756e7400000000000000000000000000600082015250565b7f596f75206d757374206c6f67696e20696e20796f7572206163636f756e740000600082015250565b61197c816116fb565b811461198757600080fd5b5056fea2646970667358221220fb99d5cf8dcfa2287fdc030fb3da6cdeef0d087d9e3916758758bca4dce946ba64736f6c63430008020033",
  "immutableReferences": {},
  "source": "//SPDX-License-Identifier: MIT\npragma solidity >=0.8.0 <0.9.0;\n\ncontract Twitter {\n    address owner;\n\n    mapping(address => User) accounts;\n    mapping(address => bool) isLogged;\n    mapping(address => Twitt[]) twitts;\n\n    uint usersCount = 0;\n    \n    struct User {\n        address login;\n        string password;\n        string username;\n        string avatar;\n    }\n\n    struct Twitt {\n        User author;\n        string text;\n        uint likes;\n        uint createdTime;\n    }\n\n    modifier onlyLogged() {\n        require(isLogged[msg.sender], \"You must login in your account\");\n        _;\n    }\n\n    modifier onlyOwner() {\n        require(msg.sender == owner, \"Only for owner\");\n        _;\n    }\n\n    constructor(){\n        owner = msg.sender;\n    }\n\n    function Registration(string memory _username, string memory _password) public {\n        require(accounts[msg.sender].login == address(0), \"Account is already registered\");\n\n        accounts[msg.sender] = User({\n            login: msg.sender,\n            password: _password,\n            username: _username,\n            avatar: \"\"\n\n\n        });\n\n        usersCount++;\n    }\n\n    function Login(string memory _password) public {\n        require(accounts[msg.sender].login != address(0), \"You haven`t account\");\n        require(keccak256(bytes(accounts[msg.sender].password)) == keccak256(bytes(_password)), \"Wrong password\");\n\n        isLogged[msg.sender] = true;\n    }\n\n    function Logout() public onlyLogged{\n        isLogged[msg.sender] = false;\n    }\n\n    function GetUser(address _user) public view returns(User memory) {\n        return accounts[_user];\n    }\n\n    function AddTwitt(string memory _text) public onlyLogged{\n        User memory _user = GetUser(msg.sender);\n\n        twitts[msg.sender].push(Twitt({\n            author: _user,\n            text: _text,\n            likes: 0,\n            createdTime: block.timestamp\n        }));\n    }\n\n    function UserTwitts(address _user) external view onlyLogged returns(Twitt[] memory){\n        return twitts[_user];\n    \n    }\n\n    function CheckRegistration(address _user) external view returns(bool) {\n        return accounts[_user].login != address(0);\n    \n    }\n\n    function UpdateUser(string memory _avatar) public {\n        User storage _user = accounts[msg.sender];\n\n        _user.avatar = _avatar;\n    }\n\n\n}\n",
  "sourcePath": "/Users/illiamoiseev/Desktop/   /Web3/Twitter-Web3/contracts/contracts/Twitter.sol",
  "compiler": {
    "name": "solc",
    "version": "0.8.2+commit.661d1103.Emscripten.clang"
  },
  "schemaVersion": "3.4.16",
  "updatedAt": "2024-04-27T10:04:25.440Z",
  "networkType": "ethereum",
  "devdoc": {
    "kind": "dev",
    "methods": {},
    "version": 1
  },
  "userdoc": {
    "kind": "user",
    "methods": {},
    "version": 1
  }
}